{
  "_format": "hh-sol-artifact-1",
  "contractName": "ShillPortal",
  "sourceName": "contracts/ShillPortal.sol",
  "abi": [
    {
      "inputs": [],
      "stateMutability": "payable",
      "type": "constructor"
    },
    {
      "anonymous": false,
      "inputs": [
        {
          "indexed": false,
          "internalType": "uint256",
          "name": "id",
          "type": "uint256"
        },
        {
          "indexed": false,
          "internalType": "uint256",
          "name": "timestamp",
          "type": "uint256"
        },
        {
          "indexed": true,
          "internalType": "address",
          "name": "from",
          "type": "address"
        },
        {
          "indexed": false,
          "internalType": "string",
          "name": "emoji",
          "type": "string"
        },
        {
          "indexed": false,
          "internalType": "string",
          "name": "title",
          "type": "string"
        },
        {
          "indexed": false,
          "internalType": "string",
          "name": "body",
          "type": "string"
        }
      ],
      "name": "newAllowance",
      "type": "event"
    },
    {
      "anonymous": false,
      "inputs": [
        {
          "indexed": false,
          "internalType": "uint256",
          "name": "id",
          "type": "uint256"
        },
        {
          "indexed": false,
          "internalType": "uint256",
          "name": "timestamp",
          "type": "uint256"
        },
        {
          "indexed": true,
          "internalType": "address",
          "name": "from",
          "type": "address"
        },
        {
          "indexed": false,
          "internalType": "string",
          "name": "emoji",
          "type": "string"
        },
        {
          "indexed": false,
          "internalType": "string",
          "name": "title",
          "type": "string"
        }
      ],
      "name": "newShill",
      "type": "event"
    },
    {
      "inputs": [
        {
          "internalType": "address",
          "name": "",
          "type": "address"
        },
        {
          "internalType": "uint256",
          "name": "",
          "type": "uint256"
        }
      ],
      "name": "allowedShills",
      "outputs": [
        {
          "internalType": "uint256",
          "name": "",
          "type": "uint256"
        }
      ],
      "stateMutability": "view",
      "type": "function"
    },
    {
      "inputs": [
        {
          "internalType": "string",
          "name": "_username",
          "type": "string"
        }
      ],
      "name": "changeUsername",
      "outputs": [],
      "stateMutability": "payable",
      "type": "function"
    },
    {
      "inputs": [
        {
          "internalType": "uint256",
          "name": "_shillId",
          "type": "uint256"
        }
      ],
      "name": "downvote",
      "outputs": [],
      "stateMutability": "nonpayable",
      "type": "function"
    },
    {
      "inputs": [
        {
          "internalType": "address",
          "name": "",
          "type": "address"
        }
      ],
      "name": "downvotes",
      "outputs": [
        {
          "internalType": "uint256",
          "name": "",
          "type": "uint256"
        }
      ],
      "stateMutability": "view",
      "type": "function"
    },
    {
      "inputs": [],
      "name": "getAllShills",
      "outputs": [
        {
          "components": [
            {
              "internalType": "uint256",
              "name": "id",
              "type": "uint256"
            },
            {
              "internalType": "uint256",
              "name": "timestamp",
              "type": "uint256"
            },
            {
              "internalType": "address",
              "name": "shiller",
              "type": "address"
            },
            {
              "internalType": "string",
              "name": "emoji",
              "type": "string"
            },
            {
              "internalType": "string",
              "name": "title",
              "type": "string"
            },
            {
              "internalType": "string",
              "name": "body",
              "type": "string"
            },
            {
              "internalType": "address[]",
              "name": "voters",
              "type": "address[]"
            }
          ],
          "internalType": "struct ShillPortal.Shill[]",
          "name": "",
          "type": "tuple[]"
        }
      ],
      "stateMutability": "view",
      "type": "function"
    },
    {
      "inputs": [],
      "name": "getAllowedShills",
      "outputs": [
        {
          "components": [
            {
              "internalType": "uint256",
              "name": "id",
              "type": "uint256"
            },
            {
              "internalType": "uint256",
              "name": "timestamp",
              "type": "uint256"
            },
            {
              "internalType": "address",
              "name": "shiller",
              "type": "address"
            },
            {
              "internalType": "string",
              "name": "emoji",
              "type": "string"
            },
            {
              "internalType": "string",
              "name": "title",
              "type": "string"
            },
            {
              "internalType": "string",
              "name": "body",
              "type": "string"
            },
            {
              "internalType": "address[]",
              "name": "voters",
              "type": "address[]"
            }
          ],
          "internalType": "struct ShillPortal.Shill[]",
          "name": "",
          "type": "tuple[]"
        }
      ],
      "stateMutability": "view",
      "type": "function"
    },
    {
      "inputs": [
        {
          "internalType": "address",
          "name": "_from",
          "type": "address"
        }
      ],
      "name": "getRating",
      "outputs": [
        {
          "internalType": "int256",
          "name": "",
          "type": "int256"
        }
      ],
      "stateMutability": "view",
      "type": "function"
    },
    {
      "inputs": [
        {
          "internalType": "address",
          "name": "",
          "type": "address"
        }
      ],
      "name": "lastShilledAt",
      "outputs": [
        {
          "internalType": "uint256",
          "name": "",
          "type": "uint256"
        }
      ],
      "stateMutability": "view",
      "type": "function"
    },
    {
      "inputs": [],
      "name": "owner",
      "outputs": [
        {
          "internalType": "address",
          "name": "",
          "type": "address"
        }
      ],
      "stateMutability": "view",
      "type": "function"
    },
    {
      "inputs": [
        {
          "internalType": "uint256",
          "name": "_shillCost",
          "type": "uint256"
        }
      ],
      "name": "setShillCost",
      "outputs": [],
      "stateMutability": "nonpayable",
      "type": "function"
    },
    {
      "inputs": [
        {
          "internalType": "uint256",
          "name": "_usernameCost",
          "type": "uint256"
        }
      ],
      "name": "setUsernameCost",
      "outputs": [],
      "stateMutability": "nonpayable",
      "type": "function"
    },
    {
      "inputs": [
        {
          "internalType": "uint256",
          "name": "_viewCost",
          "type": "uint256"
        }
      ],
      "name": "setViewCost",
      "outputs": [],
      "stateMutability": "nonpayable",
      "type": "function"
    },
    {
      "inputs": [
        {
          "internalType": "string",
          "name": "_emoji",
          "type": "string"
        },
        {
          "internalType": "string",
          "name": "_title",
          "type": "string"
        },
        {
          "internalType": "string",
          "name": "_body",
          "type": "string"
        }
      ],
      "name": "shill",
      "outputs": [],
      "stateMutability": "payable",
      "type": "function"
    },
    {
      "inputs": [],
      "name": "shillCost",
      "outputs": [
        {
          "internalType": "uint256",
          "name": "",
          "type": "uint256"
        }
      ],
      "stateMutability": "view",
      "type": "function"
    },
    {
      "inputs": [
        {
          "internalType": "uint256",
          "name": "",
          "type": "uint256"
        }
      ],
      "name": "shills",
      "outputs": [
        {
          "internalType": "uint256",
          "name": "id",
          "type": "uint256"
        },
        {
          "internalType": "uint256",
          "name": "timestamp",
          "type": "uint256"
        },
        {
          "internalType": "address",
          "name": "shiller",
          "type": "address"
        },
        {
          "internalType": "string",
          "name": "emoji",
          "type": "string"
        },
        {
          "internalType": "string",
          "name": "title",
          "type": "string"
        },
        {
          "internalType": "string",
          "name": "body",
          "type": "string"
        }
      ],
      "stateMutability": "view",
      "type": "function"
    },
    {
      "inputs": [],
      "name": "totalShills",
      "outputs": [
        {
          "internalType": "uint256",
          "name": "",
          "type": "uint256"
        }
      ],
      "stateMutability": "view",
      "type": "function"
    },
    {
      "inputs": [
        {
          "internalType": "uint256",
          "name": "_shillId",
          "type": "uint256"
        }
      ],
      "name": "upvote",
      "outputs": [],
      "stateMutability": "nonpayable",
      "type": "function"
    },
    {
      "inputs": [
        {
          "internalType": "address",
          "name": "",
          "type": "address"
        }
      ],
      "name": "upvotes",
      "outputs": [
        {
          "internalType": "uint256",
          "name": "",
          "type": "uint256"
        }
      ],
      "stateMutability": "view",
      "type": "function"
    },
    {
      "inputs": [],
      "name": "usernameCost",
      "outputs": [
        {
          "internalType": "uint256",
          "name": "",
          "type": "uint256"
        }
      ],
      "stateMutability": "view",
      "type": "function"
    },
    {
      "inputs": [
        {
          "internalType": "address",
          "name": "",
          "type": "address"
        }
      ],
      "name": "usernames",
      "outputs": [
        {
          "internalType": "string",
          "name": "",
          "type": "string"
        }
      ],
      "stateMutability": "view",
      "type": "function"
    },
    {
      "inputs": [],
      "name": "viewCost",
      "outputs": [
        {
          "internalType": "uint256",
          "name": "",
          "type": "uint256"
        }
      ],
      "stateMutability": "view",
      "type": "function"
    },
    {
      "inputs": [
        {
          "internalType": "uint256",
          "name": "_shillId",
          "type": "uint256"
        }
      ],
      "name": "viewShill",
      "outputs": [],
      "stateMutability": "payable",
      "type": "function"
    },
    {
      "inputs": [],
      "name": "withdraw",
      "outputs": [],
      "stateMutability": "payable",
      "type": "function"
    }
  ],
  "bytecode": "0x608060405260006003556000600455600060055533600160006101000a81548173ffffffffffffffffffffffffffffffffffffffff021916908373ffffffffffffffffffffffffffffffffffffffff160217905550612ce0806100636000396000f3fe6080604052600436106101405760003560e01c806370a588f8116100b6578063c4c6a2681161006f578063c4c6a26814610438578063daf4906d14610463578063ee91877c146104a0578063f2b2146f146104dd578063f31fdad4146104f9578063fc928d3b1461052257610140565b806370a588f81461033557806377c846af1461035e57806380fc9c0e1461037a5780638da5cb5b146103b75780639f75edff146103e2578063c364e60c1461040d57610140565b80631fad75e1116101085780631fad75e11461023257806324abc0b91461025d5780632627248f1461029a5780633ccfd60b146102c55780634056c3a3146102cf57806352da5f32146102f857610140565b806301ddf07014610145578063033ce1d01461016e5780630ad53803146101b057806315c8a1e5146101d95780631a52afd214610216575b600080fd5b34801561015157600080fd5b5061016c6004803603810190610167919061215d565b61054d565b005b34801561017a57600080fd5b506101956004803603810190610190919061215d565b6107be565b6040516101a79695949392919061270e565b60405180910390f35b3480156101bc57600080fd5b506101d760048036038101906101d2919061215d565b6109c2565b005b3480156101e557600080fd5b5061020060048036038101906101fb9190612049565b610a26565b60405161020d91906126f3565b60405180910390f35b610230600480360381019061022b919061215d565b610a57565b005b34801561023e57600080fd5b50610247610c6e565b6040516102549190612634565b60405180910390f35b34801561026957600080fd5b50610284600480360381019061027f9190612020565b611122565b60405161029191906126f3565b60405180910390f35b3480156102a657600080fd5b506102af61113a565b6040516102bc91906126f3565b60405180910390f35b6102cd611140565b005b3480156102db57600080fd5b506102f660048036038101906102f1919061215d565b6111e3565b005b34801561030457600080fd5b5061031f600480360381019061031a9190612020565b611247565b60405161032c91906126f3565b60405180910390f35b34801561034157600080fd5b5061035c6004803603810190610357919061215d565b61125f565b005b61037860048036038101906103739190612085565b6112c3565b005b34801561038657600080fd5b506103a1600480360381019061039c9190612020565b611329565b6040516103ae9190612656565b60405180910390f35b3480156103c357600080fd5b506103cc6114cd565b6040516103d99190612619565b60405180910390f35b3480156103ee57600080fd5b506103f76114f3565b60405161040491906126f3565b60405180910390f35b34801561041957600080fd5b506104226114f9565b60405161042f9190612634565b60405180910390f35b34801561044457600080fd5b5061044d611806565b60405161045a91906126f3565b60405180910390f35b34801561046f57600080fd5b5061048a60048036038101906104859190612020565b61180c565b60405161049791906126f3565b60405180910390f35b3480156104ac57600080fd5b506104c760048036038101906104c29190612020565b611824565b6040516104d49190612671565b60405180910390f35b6104f760048036038101906104f291906120c6565b6118c4565b005b34801561050557600080fd5b50610520600480360381019061051b919061215d565b611b97565b005b34801561052e57600080fd5b50610537611e08565b60405161054491906126f3565b60405180910390f35b6008600080838154811061058a577f4e487b7100000000000000000000000000000000000000000000000000000000600052603260045260246000fd5b906000526020600020906007020160020160009054906101000a900473ffffffffffffffffffffffffffffffffffffffff1673ffffffffffffffffffffffffffffffffffffffff1673ffffffffffffffffffffffffffffffffffffffff168152602001908152602001600020600081548092919061060790612afa565b919050555060008181548110610646577f4e487b7100000000000000000000000000000000000000000000000000000000600052603260045260246000fd5b9060005260206000209060070201600601339080600181540180825580915050600190039060005260206000200160009091909190916101000a81548173ffffffffffffffffffffffffffffffffffffffff021916908373ffffffffffffffffffffffffffffffffffffffff1602179055506000606442336002546040516020016106d3939291906125dc565b6040516020818303038152906040528051906020012060001c6106f69190612b71565b9050603281106107ba5760003373ffffffffffffffffffffffffffffffffffffffff16600a4761072691906129b5565b604051610732906125c7565b60006040518083038185875af1925050503d806000811461076f576040519150601f19603f3d011682016040523d82523d6000602084013e610774565b606091505b50509050806107b8576040517f08c379a00000000000000000000000000000000000000000000000000000000081526004016107af906126b3565b60405180910390fd5b505b5050565b600081815481106107ce57600080fd5b90600052602060002090600702016000915090508060000154908060010154908060020160009054906101000a900473ffffffffffffffffffffffffffffffffffffffff169080600301805461082390612ac8565b80601f016020809104026020016040519081016040528092919081815260200182805461084f90612ac8565b801561089c5780601f106108715761010080835404028352916020019161089c565b820191906000526020600020905b81548152906001019060200180831161087f57829003601f168201915b5050505050908060040180546108b190612ac8565b80601f01602080910402602001604051908101604052809291908181526020018280546108dd90612ac8565b801561092a5780601f106108ff5761010080835404028352916020019161092a565b820191906000526020600020905b81548152906001019060200180831161090d57829003601f168201915b50505050509080600501805461093f90612ac8565b80601f016020809104026020016040519081016040528092919081815260200182805461096b90612ac8565b80156109b85780601f1061098d576101008083540402835291602001916109b8565b820191906000526020600020905b81548152906001019060200180831161099b57829003601f168201915b5050505050905086565b600160009054906101000a900473ffffffffffffffffffffffffffffffffffffffff1673ffffffffffffffffffffffffffffffffffffffff163373ffffffffffffffffffffffffffffffffffffffff1614610a1c57600080fd5b8060048190555050565b60076020528160005260406000208181548110610a4257600080fd5b90600052602060002001600091509150505481565b600454341015610a6657600080fd5b600760003373ffffffffffffffffffffffffffffffffffffffff1673ffffffffffffffffffffffffffffffffffffffff16815260200190815260200160002081908060018154018082558091505060019003906000526020600020016000909190919091505560008181548110610b06577f4e487b7100000000000000000000000000000000000000000000000000000000600052603260045260246000fd5b906000526020600020906007020160020160009054906101000a900473ffffffffffffffffffffffffffffffffffffffff1673ffffffffffffffffffffffffffffffffffffffff167f9dafc22cbf87b7c951c2088b8434adbda9153a25c95898119919bca0c5aa207c824260008581548110610bab577f4e487b7100000000000000000000000000000000000000000000000000000000600052603260045260246000fd5b906000526020600020906007020160030160008681548110610bf6577f4e487b7100000000000000000000000000000000000000000000000000000000600052603260045260246000fd5b906000526020600020906007020160040160008781548110610c41577f4e487b7100000000000000000000000000000000000000000000000000000000600052603260045260246000fd5b9060005260206000209060070201600501604051610c639594939291906127d7565b60405180910390a250565b60606000600760003373ffffffffffffffffffffffffffffffffffffffff1673ffffffffffffffffffffffffffffffffffffffff16815260200190815260200160002080549050905060008167ffffffffffffffff811115610cf9577f4e487b7100000000000000000000000000000000000000000000000000000000600052604160045260246000fd5b604051908082528060200260200182016040528015610d3257816020015b610d1f611e0e565b815260200190600190039081610d175790505b50905060005b82811015611119576000600760003373ffffffffffffffffffffffffffffffffffffffff1673ffffffffffffffffffffffffffffffffffffffff1681526020019081526020016000208281548110610db9577f4e487b7100000000000000000000000000000000000000000000000000000000600052603260045260246000fd5b906000526020600020015481548110610dfb577f4e487b7100000000000000000000000000000000000000000000000000000000600052603260045260246000fd5b90600052602060002090600702016040518060e001604052908160008201548152602001600182015481526020016002820160009054906101000a900473ffffffffffffffffffffffffffffffffffffffff1673ffffffffffffffffffffffffffffffffffffffff1673ffffffffffffffffffffffffffffffffffffffff168152602001600382018054610e8e90612ac8565b80601f0160208091040260200160405190810160405280929190818152602001828054610eba90612ac8565b8015610f075780601f10610edc57610100808354040283529160200191610f07565b820191906000526020600020905b815481529060010190602001808311610eea57829003601f168201915b50505050508152602001600482018054610f2090612ac8565b80601f0160208091040260200160405190810160405280929190818152602001828054610f4c90612ac8565b8015610f995780601f10610f6e57610100808354040283529160200191610f99565b820191906000526020600020905b815481529060010190602001808311610f7c57829003601f168201915b50505050508152602001600582018054610fb290612ac8565b80601f0160208091040260200160405190810160405280929190818152602001828054610fde90612ac8565b801561102b5780601f106110005761010080835404028352916020019161102b565b820191906000526020600020905b81548152906001019060200180831161100e57829003601f168201915b50505050508152602001600682018054806020026020016040519081016040528092919081815260200182805480156110b957602002820191906000526020600020905b8160009054906101000a900473ffffffffffffffffffffffffffffffffffffffff1673ffffffffffffffffffffffffffffffffffffffff168152602001906001019080831161106f575b5050505050815250508282815181106110fb577f4e487b7100000000000000000000000000000000000000000000000000000000600052603260045260246000fd5b6020026020010181905250808061111190612afa565b915050610d38565b50809250505090565b60096020528060005260406000206000915090505481565b60025481565b600160009054906101000a900473ffffffffffffffffffffffffffffffffffffffff1673ffffffffffffffffffffffffffffffffffffffff163373ffffffffffffffffffffffffffffffffffffffff161461119a57600080fd5b3373ffffffffffffffffffffffffffffffffffffffff166108fc479081150290604051600060405180830381858888f193505050501580156111e0573d6000803e3d6000fd5b50565b600160009054906101000a900473ffffffffffffffffffffffffffffffffffffffff1673ffffffffffffffffffffffffffffffffffffffff163373ffffffffffffffffffffffffffffffffffffffff161461123d57600080fd5b8060058190555050565b600a6020528060005260406000206000915090505481565b600160009054906101000a900473ffffffffffffffffffffffffffffffffffffffff1673ffffffffffffffffffffffffffffffffffffffff163373ffffffffffffffffffffffffffffffffffffffff16146112b957600080fd5b8060038190555050565b6005543410156112d257600080fd5b80600660003373ffffffffffffffffffffffffffffffffffffffff1673ffffffffffffffffffffffffffffffffffffffff1681526020019081526020016000209080519060200190611325929190611e61565b5050565b600080600860008473ffffffffffffffffffffffffffffffffffffffff1673ffffffffffffffffffffffffffffffffffffffff168152602001908152602001600020541480156113b857506000600960008473ffffffffffffffffffffffffffffffffffffffff1673ffffffffffffffffffffffffffffffffffffffff16815260200190815260200160002054145b156113e5577fffffffffffffffffffffffffffffffffffffffffffffffffffffffffffffffff90506114c8565b600960008373ffffffffffffffffffffffffffffffffffffffff1673ffffffffffffffffffffffffffffffffffffffff16815260200190815260200160002054600860008473ffffffffffffffffffffffffffffffffffffffff1673ffffffffffffffffffffffffffffffffffffffff1681526020019081526020016000205461146f919061295f565b6064600860008573ffffffffffffffffffffffffffffffffffffffff1673ffffffffffffffffffffffffffffffffffffffff168152602001908152602001600020546114bb91906129e6565b6114c591906129b5565b90505b919050565b600160009054906101000a900473ffffffffffffffffffffffffffffffffffffffff1681565b60045481565b60606000805480602002602001604051908101604052809291908181526020016000905b828210156117fd57838290600052602060002090600702016040518060e001604052908160008201548152602001600182015481526020016002820160009054906101000a900473ffffffffffffffffffffffffffffffffffffffff1673ffffffffffffffffffffffffffffffffffffffff1673ffffffffffffffffffffffffffffffffffffffff1681526020016003820180546115ba90612ac8565b80601f01602080910402602001604051908101604052809291908181526020018280546115e690612ac8565b80156116335780601f1061160857610100808354040283529160200191611633565b820191906000526020600020905b81548152906001019060200180831161161657829003601f168201915b5050505050815260200160048201805461164c90612ac8565b80601f016020809104026020016040519081016040528092919081815260200182805461167890612ac8565b80156116c55780601f1061169a576101008083540402835291602001916116c5565b820191906000526020600020905b8154815290600101906020018083116116a857829003601f168201915b505050505081526020016005820180546116de90612ac8565b80601f016020809104026020016040519081016040528092919081815260200182805461170a90612ac8565b80156117575780601f1061172c57610100808354040283529160200191611757565b820191906000526020600020905b81548152906001019060200180831161173a57829003601f168201915b50505050508152602001600682018054806020026020016040519081016040528092919081815260200182805480156117e557602002820191906000526020600020905b8160009054906101000a900473ffffffffffffffffffffffffffffffffffffffff1673ffffffffffffffffffffffffffffffffffffffff168152602001906001019080831161179b575b5050505050815250508152602001906001019061151d565b50505050905090565b60055481565b60086020528060005260406000206000915090505481565b6006602052806000526040600020600091509050805461184390612ac8565b80601f016020809104026020016040519081016040528092919081815260200182805461186f90612ac8565b80156118bc5780601f10611891576101008083540402835291602001916118bc565b820191906000526020600020905b81548152906001019060200180831161189f57829003601f168201915b505050505081565b600354341015611909576040517f08c379a000000000000000000000000000000000000000000000000000000000815260040161190090612693565b60405180910390fd5b42603c600a60003373ffffffffffffffffffffffffffffffffffffffff1673ffffffffffffffffffffffffffffffffffffffff16815260200190815260200160002054611956919061295f565b10611996576040517f08c379a000000000000000000000000000000000000000000000000000000000815260040161198d906126d3565b60405180910390fd5b606060006040518060e0016040528060025481526020014281526020013373ffffffffffffffffffffffffffffffffffffffff168152602001868152602001858152602001848152602001838152509080600181540180825580915050600190039060005260206000209060070201600090919091909150600082015181600001556020820151816001015560408201518160020160006101000a81548173ffffffffffffffffffffffffffffffffffffffff021916908373ffffffffffffffffffffffffffffffffffffffff1602179055506060820151816003019080519060200190611a85929190611e61565b506080820151816004019080519060200190611aa2929190611e61565b5060a0820151816005019080519060200190611abf929190611e61565b5060c0820151816006019080519060200190611adc929190611ee7565b5050503373ffffffffffffffffffffffffffffffffffffffff167ffbff81bff151f867d20154c9edbd7943b00d20c0a063f39af6b76bd5c6a3d934600254428787604051611b2d9493929190612784565b60405180910390a260026000815480929190611b4890612afa565b919050555042600a60003373ffffffffffffffffffffffffffffffffffffffff1673ffffffffffffffffffffffffffffffffffffffff1681526020019081526020016000208190555050505050565b60096000808381548110611bd4577f4e487b7100000000000000000000000000000000000000000000000000000000600052603260045260246000fd5b906000526020600020906007020160020160009054906101000a900473ffffffffffffffffffffffffffffffffffffffff1673ffffffffffffffffffffffffffffffffffffffff1673ffffffffffffffffffffffffffffffffffffffff1681526020019081526020016000206000815480929190611c5190612afa565b919050555060008181548110611c90577f4e487b7100000000000000000000000000000000000000000000000000000000600052603260045260246000fd5b9060005260206000209060070201600601339080600181540180825580915050600190039060005260206000200160009091909190916101000a81548173ffffffffffffffffffffffffffffffffffffffff021916908373ffffffffffffffffffffffffffffffffffffffff160217905550600060644233600254604051602001611d1d939291906125dc565b6040516020818303038152906040528051906020012060001c611d409190612b71565b905060328110611e045760003373ffffffffffffffffffffffffffffffffffffffff16600a47611d7091906129b5565b604051611d7c906125c7565b60006040518083038185875af1925050503d8060008114611db9576040519150601f19603f3d011682016040523d82523d6000602084013e611dbe565b606091505b5050905080611e02576040517f08c379a0000000000000000000000000000000000000000000000000000000008152600401611df9906126b3565b60405180910390fd5b505b5050565b60035481565b6040518060e001604052806000815260200160008152602001600073ffffffffffffffffffffffffffffffffffffffff168152602001606081526020016060815260200160608152602001606081525090565b828054611e6d90612ac8565b90600052602060002090601f016020900481019282611e8f5760008555611ed6565b82601f10611ea857805160ff1916838001178555611ed6565b82800160010185558215611ed6579182015b82811115611ed5578251825591602001919060010190611eba565b5b509050611ee39190611f71565b5090565b828054828255906000526020600020908101928215611f60579160200282015b82811115611f5f5782518260006101000a81548173ffffffffffffffffffffffffffffffffffffffff021916908373ffffffffffffffffffffffffffffffffffffffff16021790555091602001919060010190611f07565b5b509050611f6d9190611f71565b5090565b5b80821115611f8a576000816000905550600101611f72565b5090565b6000611fa1611f9c84612870565b61283f565b905082815260208101848484011115611fb957600080fd5b611fc4848285612a86565b509392505050565b600081359050611fdb81612c7c565b92915050565b600082601f830112611ff257600080fd5b8135612002848260208601611f8e565b91505092915050565b60008135905061201a81612c93565b92915050565b60006020828403121561203257600080fd5b600061204084828501611fcc565b91505092915050565b6000806040838503121561205c57600080fd5b600061206a85828601611fcc565b925050602061207b8582860161200b565b9150509250929050565b60006020828403121561209757600080fd5b600082013567ffffffffffffffff8111156120b157600080fd5b6120bd84828501611fe1565b91505092915050565b6000806000606084860312156120db57600080fd5b600084013567ffffffffffffffff8111156120f557600080fd5b61210186828701611fe1565b935050602084013567ffffffffffffffff81111561211e57600080fd5b61212a86828701611fe1565b925050604084013567ffffffffffffffff81111561214757600080fd5b61215386828701611fe1565b9150509250925092565b60006020828403121561216f57600080fd5b600061217d8482850161200b565b91505092915050565b600061219283836121b2565b60208301905092915050565b60006121aa83836124e1565b905092915050565b6121bb81612a40565b82525050565b6121ca81612a40565b82525050565b6121e16121dc82612a40565b612b43565b82525050565b60006121f2826128d5565b6121fc8185612910565b9350612207836128a0565b8060005b8381101561223857815161221f8882612186565b975061222a836128f6565b92505060018101905061220b565b5085935050505092915050565b6000612250826128e0565b61225a8185612921565b93508360208202850161226c856128b0565b8060005b858110156122a85784840389528151612289858261219e565b945061229483612903565b925060208a01995050600181019050612270565b50829750879550505050505092915050565b6122c381612a52565b82525050565b60006122d4826128eb565b6122de818561293d565b93506122ee818560208601612a95565b6122f781612c5e565b840191505092915050565b600061230d826128eb565b612317818561294e565b9350612327818560208601612a95565b61233081612c5e565b840191505092915050565b6000815461234881612ac8565b612352818661294e565b9450600182166000811461236d576001811461237f576123b2565b60ff19831686526020860193506123b2565b612388856128c0565b60005b838110156123aa5781548189015260018201915060208101905061238b565b808801955050505b50505092915050565b60006123c8601a8361294e565b91507f506c656173652070726f76696465206d6f72652066756e64732e0000000000006000830152602082019050919050565b600061240860278361294e565b91507f4661696c656420746f207769746864726177206d6f6e65792066726f6d20636f60008301527f6e74726163742e000000000000000000000000000000000000000000000000006020830152604082019050919050565b600061246e60328361294e565b91507f506c6561736520776169742035206d696e206265666f7265207375626d69747460008301527f696e6720616e6f74686572207368696c6c2e00000000000000000000000000006020830152604082019050919050565b60006124d4600083612932565b9150600082019050919050565b600060e0830160008301516124f96000860182612592565b50602083015161250c6020860182612592565b50604083015161251f60408601826121b2565b506060830151848203606086015261253782826122c9565b9150506080830151848203608086015261255182826122c9565b91505060a083015184820360a086015261256b82826122c9565b91505060c083015184820360c086015261258582826121e7565b9150508091505092915050565b61259b81612a7c565b82525050565b6125aa81612a7c565b82525050565b6125c16125bc82612a7c565b612b67565b82525050565b60006125d2826124c7565b9150819050919050565b60006125e882866125b0565b6020820191506125f882856121d0565b60148201915061260882846125b0565b602082019150819050949350505050565b600060208201905061262e60008301846121c1565b92915050565b6000602082019050818103600083015261264e8184612245565b905092915050565b600060208201905061266b60008301846122ba565b92915050565b6000602082019050818103600083015261268b8184612302565b905092915050565b600060208201905081810360008301526126ac816123bb565b9050919050565b600060208201905081810360008301526126cc816123fb565b9050919050565b600060208201905081810360008301526126ec81612461565b9050919050565b600060208201905061270860008301846125a1565b92915050565b600060c08201905061272360008301896125a1565b61273060208301886125a1565b61273d60408301876121c1565b818103606083015261274f8186612302565b905081810360808301526127638185612302565b905081810360a08301526127778184612302565b9050979650505050505050565b600060808201905061279960008301876125a1565b6127a660208301866125a1565b81810360408301526127b88185612302565b905081810360608301526127cc8184612302565b905095945050505050565b600060a0820190506127ec60008301886125a1565b6127f960208301876125a1565b818103604083015261280b818661233b565b9050818103606083015261281f818561233b565b90508181036080830152612833818461233b565b90509695505050505050565b6000604051905081810181811067ffffffffffffffff8211171561286657612865612c2f565b5b8060405250919050565b600067ffffffffffffffff82111561288b5761288a612c2f565b5b601f19601f8301169050602081019050919050565b6000819050602082019050919050565b6000819050602082019050919050565b60008190508160005260206000209050919050565b600081519050919050565b600081519050919050565b600081519050919050565b6000602082019050919050565b6000602082019050919050565b600082825260208201905092915050565b600082825260208201905092915050565b600081905092915050565b600082825260208201905092915050565b600082825260208201905092915050565b600061296a82612a7c565b915061297583612a7c565b9250827fffffffffffffffffffffffffffffffffffffffffffffffffffffffffffffffff038211156129aa576129a9612ba2565b5b828201905092915050565b60006129c082612a7c565b91506129cb83612a7c565b9250826129db576129da612bd1565b5b828204905092915050565b60006129f182612a7c565b91506129fc83612a7c565b9250817fffffffffffffffffffffffffffffffffffffffffffffffffffffffffffffffff0483118215151615612a3557612a34612ba2565b5b828202905092915050565b6000612a4b82612a5c565b9050919050565b6000819050919050565b600073ffffffffffffffffffffffffffffffffffffffff82169050919050565b6000819050919050565b82818337600083830152505050565b60005b83811015612ab3578082015181840152602081019050612a98565b83811115612ac2576000848401525b50505050565b60006002820490506001821680612ae057607f821691505b60208210811415612af457612af3612c00565b5b50919050565b6000612b0582612a7c565b91507fffffffffffffffffffffffffffffffffffffffffffffffffffffffffffffffff821415612b3857612b37612ba2565b5b600182019050919050565b6000612b4e82612b55565b9050919050565b6000612b6082612c6f565b9050919050565b6000819050919050565b6000612b7c82612a7c565b9150612b8783612a7c565b925082612b9757612b96612bd1565b5b828206905092915050565b7f4e487b7100000000000000000000000000000000000000000000000000000000600052601160045260246000fd5b7f4e487b7100000000000000000000000000000000000000000000000000000000600052601260045260246000fd5b7f4e487b7100000000000000000000000000000000000000000000000000000000600052602260045260246000fd5b7f4e487b7100000000000000000000000000000000000000000000000000000000600052604160045260246000fd5b6000601f19601f8301169050919050565b60008160601b9050919050565b612c8581612a40565b8114612c9057600080fd5b50565b612c9c81612a7c565b8114612ca757600080fd5b5056fea264697066735822122062127a58c553fdb9e5149e28ad5308b9769f192d328c842cae60489a5e665c4b64736f6c63430008000033",
  "linkReferences": {},
  "deployedLinkReferences": {}
}